{
  "abi": [
    {
      "anonymous": false,
      "inputs": [
        {
          "components": [
            {
              "internalType": "uint8",
              "name": "parents",
              "type": "uint8"
            },
            {
              "internalType": "bytes[]",
              "name": "interior",
              "type": "bytes[]"
            }
          ],
          "indexed": false,
          "internalType": "struct XcmTransactorV2.Multilocation",
          "name": "dest",
          "type": "tuple"
        },
        {
          "indexed": false,
          "internalType": "address",
          "name": "feeLocationAddress",
          "type": "address"
        },
        {
          "indexed": false,
          "internalType": "uint64",
          "name": "transactRequiredWeightAtMost",
          "type": "uint64"
        },
        {
          "indexed": false,
          "internalType": "bytes",
          "name": "call",
          "type": "bytes"
        },
        {
          "indexed": false,
          "internalType": "uint256",
          "name": "feeAmount",
          "type": "uint256"
        },
        {
          "indexed": false,
          "internalType": "uint64",
          "name": "overallWeight",
          "type": "uint64"
        }
      ],
      "name": "TransactThroughSigned",
      "type": "event"
    },
    {
      "inputs": [
        {
          "components": [
            {
              "internalType": "uint8",
              "name": "parents",
              "type": "uint8"
            },
            {
              "internalType": "bytes[]",
              "name": "interior",
              "type": "bytes[]"
            }
          ],
          "internalType": "struct XcmTransactorV2.Multilocation",
          "name": "",
          "type": "tuple"
        }
      ],
      "name": "feePerSecond",
      "outputs": [
        {
          "internalType": "uint256",
          "name": "",
          "type": "uint256"
        }
      ],
      "stateMutability": "pure",
      "type": "function"
    },
    {
      "inputs": [],
      "name": "getTransactThroughSignedMultilocationArray",
      "outputs": [
        {
          "components": [
            {
              "components": [
                {
                  "internalType": "uint8",
                  "name": "parents",
                  "type": "uint8"
                },
                {
                  "internalType": "bytes[]",
                  "name": "interior",
                  "type": "bytes[]"
                }
              ],
              "internalType": "struct XcmTransactorV2.Multilocation",
              "name": "dest",
              "type": "tuple"
            },
            {
              "components": [
                {
                  "internalType": "uint8",
                  "name": "parents",
                  "type": "uint8"
                },
                {
                  "internalType": "bytes[]",
                  "name": "interior",
                  "type": "bytes[]"
                }
              ],
              "internalType": "struct XcmTransactorV2.Multilocation",
              "name": "feeLocation",
              "type": "tuple"
            },
            {
              "internalType": "uint64",
              "name": "transactRequiredWeightAtMost",
              "type": "uint64"
            },
            {
              "internalType": "bytes",
              "name": "call",
              "type": "bytes"
            },
            {
              "internalType": "uint256",
              "name": "feeAmount",
              "type": "uint256"
            },
            {
              "internalType": "uint64",
              "name": "overallWeight",
              "type": "uint64"
            }
          ],
          "internalType": "struct StubXcmTransactorV2.TransactThroughSignedMultilocationCall[]",
          "name": "",
          "type": "tuple[]"
        }
      ],
      "stateMutability": "view",
      "type": "function"
    },
    {
      "inputs": [
        {
          "internalType": "uint16",
          "name": "",
          "type": "uint16"
        }
      ],
      "name": "indexToAccount",
      "outputs": [
        {
          "internalType": "address",
          "name": "owner",
          "type": "address"
        }
      ],
      "stateMutability": "pure",
      "type": "function"
    },
    {
      "inputs": [],
      "name": "test",
      "outputs": [],
      "stateMutability": "nonpayable",
      "type": "function"
    },
    {
      "inputs": [
        {
          "components": [
            {
              "internalType": "uint8",
              "name": "parents",
              "type": "uint8"
            },
            {
              "internalType": "bytes[]",
              "name": "interior",
              "type": "bytes[]"
            }
          ],
          "internalType": "struct XcmTransactorV2.Multilocation",
          "name": "",
          "type": "tuple"
        }
      ],
      "name": "transactInfoWithSigned",
      "outputs": [
        {
          "internalType": "uint64",
          "name": "transactExtraWeight",
          "type": "uint64"
        },
        {
          "internalType": "uint64",
          "name": "transactExtraWeightSigned",
          "type": "uint64"
        },
        {
          "internalType": "uint64",
          "name": "maxWeight",
          "type": "uint64"
        }
      ],
      "stateMutability": "pure",
      "type": "function"
    },
    {
      "inputs": [
        {
          "internalType": "uint8",
          "name": "transactor",
          "type": "uint8"
        },
        {
          "internalType": "uint16",
          "name": "index",
          "type": "uint16"
        },
        {
          "internalType": "address",
          "name": "currencyId",
          "type": "address"
        },
        {
          "internalType": "uint64",
          "name": "transactRequiredWeightAtMost",
          "type": "uint64"
        },
        {
          "internalType": "bytes",
          "name": "innerCall",
          "type": "bytes"
        },
        {
          "internalType": "uint256",
          "name": "feeAmount",
          "type": "uint256"
        },
        {
          "internalType": "uint64",
          "name": "overallWeight",
          "type": "uint64"
        }
      ],
      "name": "transactThroughDerivative",
      "outputs": [],
      "stateMutability": "nonpayable",
      "type": "function"
    },
    {
      "inputs": [
        {
          "internalType": "uint8",
          "name": "transactor",
          "type": "uint8"
        },
        {
          "internalType": "uint16",
          "name": "index",
          "type": "uint16"
        },
        {
          "components": [
            {
              "internalType": "uint8",
              "name": "parents",
              "type": "uint8"
            },
            {
              "internalType": "bytes[]",
              "name": "interior",
              "type": "bytes[]"
            }
          ],
          "internalType": "struct XcmTransactorV2.Multilocation",
          "name": "feeAsset",
          "type": "tuple"
        },
        {
          "internalType": "uint64",
          "name": "transactRequiredWeightAtMost",
          "type": "uint64"
        },
        {
          "internalType": "bytes",
          "name": "innerCall",
          "type": "bytes"
        },
        {
          "internalType": "uint256",
          "name": "feeAmount",
          "type": "uint256"
        },
        {
          "internalType": "uint64",
          "name": "overallWeight",
          "type": "uint64"
        }
      ],
      "name": "transactThroughDerivativeMultilocation",
      "outputs": [],
      "stateMutability": "nonpayable",
      "type": "function"
    },
    {
      "inputs": [
        {
          "components": [
            {
              "internalType": "uint8",
              "name": "parents",
              "type": "uint8"
            },
            {
              "internalType": "bytes[]",
              "name": "interior",
              "type": "bytes[]"
            }
          ],
          "internalType": "struct XcmTransactorV2.Multilocation",
          "name": "dest",
          "type": "tuple"
        },
        {
          "internalType": "address",
          "name": "feeLocationAddress",
          "type": "address"
        },
        {
          "internalType": "uint64",
          "name": "transactRequiredWeightAtMost",
          "type": "uint64"
        },
        {
          "internalType": "bytes",
          "name": "call",
          "type": "bytes"
        },
        {
          "internalType": "uint256",
          "name": "feeAmount",
          "type": "uint256"
        },
        {
          "internalType": "uint64",
          "name": "overallWeight",
          "type": "uint64"
        }
      ],
      "name": "transactThroughSigned",
      "outputs": [],
      "stateMutability": "nonpayable",
      "type": "function"
    },
    {
      "inputs": [
        {
          "components": [
            {
              "internalType": "uint8",
              "name": "parents",
              "type": "uint8"
            },
            {
              "internalType": "bytes[]",
              "name": "interior",
              "type": "bytes[]"
            }
          ],
          "internalType": "struct XcmTransactorV2.Multilocation",
          "name": "dest",
          "type": "tuple"
        },
        {
          "components": [
            {
              "internalType": "uint8",
              "name": "parents",
              "type": "uint8"
            },
            {
              "internalType": "bytes[]",
              "name": "interior",
              "type": "bytes[]"
            }
          ],
          "internalType": "struct XcmTransactorV2.Multilocation",
          "name": "feeLocation",
          "type": "tuple"
        },
        {
          "internalType": "uint64",
          "name": "transactRequiredWeightAtMost",
          "type": "uint64"
        },
        {
          "internalType": "bytes",
          "name": "call",
          "type": "bytes"
        },
        {
          "internalType": "uint256",
          "name": "feeAmount",
          "type": "uint256"
        },
        {
          "internalType": "uint64",
          "name": "overallWeight",
          "type": "uint64"
        }
      ],
      "name": "transactThroughSignedMultilocation",
      "outputs": [],
      "stateMutability": "nonpayable",
      "type": "function"
    },
    {
      "inputs": [
        {
          "internalType": "uint256",
          "name": "",
          "type": "uint256"
        }
      ],
      "name": "transactThroughSignedMultilocationArray",
      "outputs": [
        {
          "components": [
            {
              "internalType": "uint8",
              "name": "parents",
              "type": "uint8"
            },
            {
              "internalType": "bytes[]",
              "name": "interior",
              "type": "bytes[]"
            }
          ],
          "internalType": "struct XcmTransactorV2.Multilocation",
          "name": "dest",
          "type": "tuple"
        },
        {
          "components": [
            {
              "internalType": "uint8",
              "name": "parents",
              "type": "uint8"
            },
            {
              "internalType": "bytes[]",
              "name": "interior",
              "type": "bytes[]"
            }
          ],
          "internalType": "struct XcmTransactorV2.Multilocation",
          "name": "feeLocation",
          "type": "tuple"
        },
        {
          "internalType": "uint64",
          "name": "transactRequiredWeightAtMost",
          "type": "uint64"
        },
        {
          "internalType": "bytes",
          "name": "call",
          "type": "bytes"
        },
        {
          "internalType": "uint256",
          "name": "feeAmount",
          "type": "uint256"
        },
        {
          "internalType": "uint64",
          "name": "overallWeight",
          "type": "uint64"
        }
      ],
      "stateMutability": "view",
      "type": "function"
    }
  ],
  "bytecode": {
    "object": "0x608060405234801561001057600080fd5b50611268806100206000396000f3fe608060405234801561001057600080fd5b506004361061009e5760003560e01c8063b689e20c11610066578063b689e20c14610135578063d7ab340c14610177578063f7d650d51461018a578063f8a8fd6d146100d8578063fe430475146101af57600080fd5b806308a9feaf146100a3578063185de2ae146100c15780633fdc4f36146100da578063906c999014610106578063b648f3fe14610122575b600080fd5b6100ab6101bd565b6040516100b89190610ac7565b60405180910390f35b6100d86100cf366004610ccb565b50505050505050565b005b6100ee6100e8366004610d64565b50600090565b6040516001600160a01b0390911681526020016100b8565b6101146100e8366004610e65565b6040519081526020016100b8565b6100d8610130366004610ea1565b6104cb565b61014d610143366004610e65565b5060009081908190565b604080516001600160401b03948516815292841660208401529216918101919091526060016100b8565b6100d8610185366004610f3e565b610514565b61019d610198366004610f9c565b61068f565b6040516100b896959493929190610fb5565b6100d86100cf36600461101b565b60606000805480602002602001604051908101604052809291908181526020016000905b828210156104c25760008481526020808220604080516101008101825260088702909201805460ff1660c084019081526001820180548451818802810188019095528085529496929587959294879460e088019491939284015b828210156102e757838290600052602060002001805461025a906110a6565b80601f0160208091040260200160405190810160405280929190818152602001828054610286906110a6565b80156102d35780601f106102a8576101008083540402835291602001916102d3565b820191906000526020600020905b8154815290600101906020018083116102b657829003601f168201915b50505050508152602001906001019061023b565b50505091525050815260408051808201825260028401805460ff16825260038501805484516020828102820181019096528181529585019593949293858401939092919060009084015b828210156103dd578382906000526020600020018054610350906110a6565b80601f016020809104026020016040519081016040528092919081815260200182805461037c906110a6565b80156103c95780601f1061039e576101008083540402835291602001916103c9565b820191906000526020600020905b8154815290600101906020018083116103ac57829003601f168201915b505050505081526020019060010190610331565b50505091525050815260048201546001600160401b0316602082015260058201805460409092019161040e906110a6565b80601f016020809104026020016040519081016040528092919081815260200182805461043a906110a6565b80156104875780601f1061045c57610100808354040283529160200191610487565b820191906000526020600020905b81548152906001019060200180831161046a57829003601f168201915b505050918352505060068201546020808301919091526007909201546001600160401b031660409091015290825260019290920191016101e1565b50505050905090565b7f6a4fc0d9b68faebe19f7e052b71a7d8f9991b7ff545e2401f23e7fa6e4355f66868686868686604051610504969594939291906110e0565b60405180910390a1505050505050565b6040805160c08101825287815260208082018890526001600160401b0380881693830193909352606082018690526080820185905291831660a0820152600080546001810182559080528151805160089092027f290decd9548b62a8d60345a988386fc84ba6bc95484008f6362f93160ef3e5638101805460ff90941660ff1990941693909317835581850151805194959394929385936105db937f290decd9548b62a8d60345a988386fc84ba6bc95484008f6362f93160ef3e564019290910190610949565b505050602082810151805160028401805460ff191660ff909216919091178155818301518051929391926106159260038701920190610949565b505050604082015160048201805467ffffffffffffffff19166001600160401b03909216919091179055606082015160058201906106539082611173565b506080820151600682015560a0909101516007909101805467ffffffffffffffff19166001600160401b03909216919091179055505050505050565b6000818154811061069f57600080fd5b600091825260208083206040805180820182526008909402909101805460ff16845260018101805483518186028101860190945280845291965093948694868501949092919084015b82821015610794578382906000526020600020018054610707906110a6565b80601f0160208091040260200160405190810160405280929190818152602001828054610733906110a6565b80156107805780601f1061075557610100808354040283529160200191610780565b820191906000526020600020905b81548152906001019060200180831161076357829003601f168201915b5050505050815260200190600101906106e8565b5050509152505060408051808201825260028401805460ff168252600385018054845160208281028201810190965281815295969593949293838601939092919060009084015b828210156108875783829060005260206000200180546107fa906110a6565b80601f0160208091040260200160405190810160405280929190818152602001828054610826906110a6565b80156108735780601f1061084857610100808354040283529160200191610873565b820191906000526020600020905b81548152906001019060200180831161085657829003601f168201915b5050505050815260200190600101906107db565b50505091525050600482015460058301805492936001600160401b03909216926108b0906110a6565b80601f01602080910402602001604051908101604052809291908181526020018280546108dc906110a6565b80156109295780601f106108fe57610100808354040283529160200191610929565b820191906000526020600020905b81548152906001019060200180831161090c57829003601f168201915b5050505060068301546007909301549192916001600160401b0316905086565b82805482825590600052602060002090810192821561098f579160200282015b8281111561098f578251829061097f9082611173565b5091602001919060010190610969565b5061099b92915061099f565b5090565b8082111561099b5760006109b382826109bc565b5060010161099f565b5080546109c8906110a6565b6000825580601f106109d8575050565b601f0160209004906000526020600020908101906109f691906109f9565b50565b5b8082111561099b57600081556001016109fa565b6000815180845260005b81811015610a3457602081850181015186830182015201610a18565b506000602082860101526020601f19601f83011685010191505092915050565b60006040830160ff835116845260208084015160408287015282815180855260608801915060608160051b8901019450838301925060005b81811015610aba57605f19898703018352610aa8868551610a0e565b95509284019291840191600101610a8c565b5093979650505050505050565b60006020808301818452808551808352604092508286019150828160051b87010184880160005b83811015610b8a57603f19898403018552815160c08151818652610b1482870182610a54565b915050888201518582038a870152610b2c8282610a54565b915050878201516001600160401b038082168a880152606091508184015187840383890152610b5b8482610a0e565b608086810151908a015260a0958601519092169490970193909352505094870194925090860190600101610aee565b509098975050505050505050565b803560ff81168114610ba957600080fd5b919050565b803561ffff81168114610ba957600080fd5b80356001600160a01b0381168114610ba957600080fd5b80356001600160401b0381168114610ba957600080fd5b634e487b7160e01b600052604160045260246000fd5b604080519081016001600160401b0381118282101715610c2657610c26610bee565b60405290565b604051601f8201601f191681016001600160401b0381118282101715610c5457610c54610bee565b604052919050565b600082601f830112610c6d57600080fd5b81356001600160401b03811115610c8657610c86610bee565b610c99601f8201601f1916602001610c2c565b818152846020838601011115610cae57600080fd5b816020850160208301376000918101602001919091529392505050565b600080600080600080600060e0888a031215610ce657600080fd5b610cef88610b98565b9650610cfd60208901610bae565b9550610d0b60408901610bc0565b9450610d1960608901610bd7565b935060808801356001600160401b03811115610d3457600080fd5b610d408a828b01610c5c565b93505060a08801359150610d5660c08901610bd7565b905092959891949750929550565b600060208284031215610d7657600080fd5b610d7f82610bae565b9392505050565b600060408284031215610d9857600080fd5b610da0610c04565b9050610dab82610b98565b81526020808301356001600160401b0380821115610dc857600080fd5b818501915085601f830112610ddc57600080fd5b813581811115610dee57610dee610bee565b8060051b610dfd858201610c2c565b9182528381018501918581019089841115610e1757600080fd5b86860192505b83831015610e5357823585811115610e355760008081fd5b610e438b89838a0101610c5c565b8352509186019190860190610e1d565b80878901525050505050505092915050565b600060208284031215610e7757600080fd5b81356001600160401b03811115610e8d57600080fd5b610e9984828501610d86565b949350505050565b60008060008060008060c08789031215610eba57600080fd5b86356001600160401b0380821115610ed157600080fd5b610edd8a838b01610d86565b9750610eeb60208a01610bc0565b9650610ef960408a01610bd7565b95506060890135915080821115610f0f57600080fd5b50610f1c89828a01610c5c565b93505060808701359150610f3260a08801610bd7565b90509295509295509295565b60008060008060008060c08789031215610f5757600080fd5b86356001600160401b0380821115610f6e57600080fd5b610f7a8a838b01610d86565b97506020890135915080821115610f9057600080fd5b610eeb8a838b01610d86565b600060208284031215610fae57600080fd5b5035919050565b60c081526000610fc860c0830189610a54565b8281036020840152610fda8189610a54565b90506001600160401b0380881660408501528382036060850152610ffe8288610a0e565b925085608085015280851660a08501525050979650505050505050565b600080600080600080600060e0888a03121561103657600080fd5b61103f88610b98565b965061104d60208901610bae565b955060408801356001600160401b038082111561106957600080fd5b6110758b838c01610d86565b965061108360608b01610bd7565b955060808a013591508082111561109957600080fd5b50610d408a828b01610c5c565b600181811c908216806110ba57607f821691505b6020821081036110da57634e487b7160e01b600052602260045260246000fd5b50919050565b60c0815260006110f360c0830189610a54565b6001600160a01b03881660208401526001600160401b0387811660408501528382036060850152610ffe8288610a0e565b601f82111561116e57600081815260208120601f850160051c8101602086101561114b5750805b601f850160051c820191505b8181101561116a57828155600101611157565b5050505b505050565b81516001600160401b0381111561118c5761118c610bee565b6111a08161119a84546110a6565b84611124565b602080601f8311600181146111d557600084156111bd5750858301515b600019600386901b1c1916600185901b17855561116a565b600085815260208120601f198616915b82811015611204578886015182559484019460019091019084016111e5565b50858210156112225787850151600019600388901b60f8161c191681555b5050505050600190811b0190555056fea2646970667358221220aef371c084af98f55733dcbe93c6ee94f7ecf23efd76c448a915aa037461406f64736f6c63430008110033",
    "linkReferences": {}
  },
  "methodIdentifiers": {
    "feePerSecond((uint8,bytes[]))": "906c9990",
    "getTransactThroughSignedMultilocationArray()": "08a9feaf",
    "indexToAccount(uint16)": "3fdc4f36",
    "test()": "f8a8fd6d",
    "transactInfoWithSigned((uint8,bytes[]))": "b689e20c",
    "transactThroughDerivative(uint8,uint16,address,uint64,bytes,uint256,uint64)": "185de2ae",
    "transactThroughDerivativeMultilocation(uint8,uint16,(uint8,bytes[]),uint64,bytes,uint256,uint64)": "fe430475",
    "transactThroughSigned((uint8,bytes[]),address,uint64,bytes,uint256,uint64)": "b648f3fe",
    "transactThroughSignedMultilocation((uint8,bytes[]),(uint8,bytes[]),uint64,bytes,uint256,uint64)": "d7ab340c",
    "transactThroughSignedMultilocationArray(uint256)": "f7d650d5"
  },
  "id": 20
}