{
  "abi": [
    {
      "anonymous": false,
      "inputs": [
        {
          "components": [
            {
              "internalType": "uint8",
              "name": "parents",
              "type": "uint8"
            },
            {
              "internalType": "bytes[]",
              "name": "interior",
              "type": "bytes[]"
            }
          ],
          "indexed": false,
          "internalType": "struct XcmTransactorV2.Multilocation",
          "name": "dest",
          "type": "tuple"
        },
        {
          "indexed": false,
          "internalType": "address",
          "name": "feeLocationAddress",
          "type": "address"
        },
        {
          "indexed": false,
          "internalType": "uint64",
          "name": "transactRequiredWeightAtMost",
          "type": "uint64"
        },
        {
          "indexed": false,
          "internalType": "bytes",
          "name": "call",
          "type": "bytes"
        },
        {
          "indexed": false,
          "internalType": "uint256",
          "name": "feeAmount",
          "type": "uint256"
        },
        {
          "indexed": false,
          "internalType": "uint64",
          "name": "overallWeight",
          "type": "uint64"
        }
      ],
      "name": "TransactThroughSigned",
      "type": "event"
    },
    {
      "inputs": [
        {
          "components": [
            {
              "internalType": "uint8",
              "name": "parents",
              "type": "uint8"
            },
            {
              "internalType": "bytes[]",
              "name": "interior",
              "type": "bytes[]"
            }
          ],
          "internalType": "struct XcmTransactorV2.Multilocation",
          "name": "multilocation",
          "type": "tuple"
        }
      ],
      "name": "feePerSecond",
      "outputs": [
        {
          "internalType": "uint256",
          "name": "",
          "type": "uint256"
        }
      ],
      "stateMutability": "view",
      "type": "function"
    },
    {
      "inputs": [],
      "name": "getTransactThroughSignedMultilocationArray",
      "outputs": [
        {
          "components": [
            {
              "components": [
                {
                  "internalType": "uint8",
                  "name": "parents",
                  "type": "uint8"
                },
                {
                  "internalType": "bytes[]",
                  "name": "interior",
                  "type": "bytes[]"
                }
              ],
              "internalType": "struct XcmTransactorV2.Multilocation",
              "name": "dest",
              "type": "tuple"
            },
            {
              "components": [
                {
                  "internalType": "uint8",
                  "name": "parents",
                  "type": "uint8"
                },
                {
                  "internalType": "bytes[]",
                  "name": "interior",
                  "type": "bytes[]"
                }
              ],
              "internalType": "struct XcmTransactorV2.Multilocation",
              "name": "feeLocation",
              "type": "tuple"
            },
            {
              "internalType": "uint64",
              "name": "transactRequiredWeightAtMost",
              "type": "uint64"
            },
            {
              "internalType": "bytes",
              "name": "call",
              "type": "bytes"
            },
            {
              "internalType": "uint256",
              "name": "feeAmount",
              "type": "uint256"
            },
            {
              "internalType": "uint64",
              "name": "overallWeight",
              "type": "uint64"
            }
          ],
          "internalType": "struct StubXcmTransactorV2.TransactThroughSignedMultilocationCall[]",
          "name": "",
          "type": "tuple[]"
        }
      ],
      "stateMutability": "view",
      "type": "function"
    },
    {
      "inputs": [
        {
          "internalType": "uint16",
          "name": "index",
          "type": "uint16"
        }
      ],
      "name": "indexToAccount",
      "outputs": [
        {
          "internalType": "address",
          "name": "owner",
          "type": "address"
        }
      ],
      "stateMutability": "view",
      "type": "function"
    },
    {
      "inputs": [],
      "name": "test",
      "outputs": [],
      "stateMutability": "nonpayable",
      "type": "function"
    },
    {
      "inputs": [
        {
          "components": [
            {
              "internalType": "uint8",
              "name": "parents",
              "type": "uint8"
            },
            {
              "internalType": "bytes[]",
              "name": "interior",
              "type": "bytes[]"
            }
          ],
          "internalType": "struct XcmTransactorV2.Multilocation",
          "name": "multilocation",
          "type": "tuple"
        }
      ],
      "name": "transactInfoWithSigned",
      "outputs": [
        {
          "internalType": "uint64",
          "name": "transactExtraWeight",
          "type": "uint64"
        },
        {
          "internalType": "uint64",
          "name": "transactExtraWeightSigned",
          "type": "uint64"
        },
        {
          "internalType": "uint64",
          "name": "maxWeight",
          "type": "uint64"
        }
      ],
      "stateMutability": "view",
      "type": "function"
    },
    {
      "inputs": [
        {
          "internalType": "uint8",
          "name": "transactor",
          "type": "uint8"
        },
        {
          "internalType": "uint16",
          "name": "index",
          "type": "uint16"
        },
        {
          "internalType": "address",
          "name": "currencyId",
          "type": "address"
        },
        {
          "internalType": "uint64",
          "name": "transactRequiredWeightAtMost",
          "type": "uint64"
        },
        {
          "internalType": "bytes",
          "name": "innerCall",
          "type": "bytes"
        },
        {
          "internalType": "uint256",
          "name": "feeAmount",
          "type": "uint256"
        },
        {
          "internalType": "uint64",
          "name": "overallWeight",
          "type": "uint64"
        }
      ],
      "name": "transactThroughDerivative",
      "outputs": [],
      "stateMutability": "nonpayable",
      "type": "function"
    },
    {
      "inputs": [
        {
          "internalType": "uint8",
          "name": "transactor",
          "type": "uint8"
        },
        {
          "internalType": "uint16",
          "name": "index",
          "type": "uint16"
        },
        {
          "components": [
            {
              "internalType": "uint8",
              "name": "parents",
              "type": "uint8"
            },
            {
              "internalType": "bytes[]",
              "name": "interior",
              "type": "bytes[]"
            }
          ],
          "internalType": "struct XcmTransactorV2.Multilocation",
          "name": "feeAsset",
          "type": "tuple"
        },
        {
          "internalType": "uint64",
          "name": "transactRequiredWeightAtMost",
          "type": "uint64"
        },
        {
          "internalType": "bytes",
          "name": "innerCall",
          "type": "bytes"
        },
        {
          "internalType": "uint256",
          "name": "feeAmount",
          "type": "uint256"
        },
        {
          "internalType": "uint64",
          "name": "overallWeight",
          "type": "uint64"
        }
      ],
      "name": "transactThroughDerivativeMultilocation",
      "outputs": [],
      "stateMutability": "nonpayable",
      "type": "function"
    },
    {
      "inputs": [
        {
          "components": [
            {
              "internalType": "uint8",
              "name": "parents",
              "type": "uint8"
            },
            {
              "internalType": "bytes[]",
              "name": "interior",
              "type": "bytes[]"
            }
          ],
          "internalType": "struct XcmTransactorV2.Multilocation",
          "name": "dest",
          "type": "tuple"
        },
        {
          "internalType": "address",
          "name": "feeLocationAddress",
          "type": "address"
        },
        {
          "internalType": "uint64",
          "name": "transactRequiredWeightAtMost",
          "type": "uint64"
        },
        {
          "internalType": "bytes",
          "name": "call",
          "type": "bytes"
        },
        {
          "internalType": "uint256",
          "name": "feeAmount",
          "type": "uint256"
        },
        {
          "internalType": "uint64",
          "name": "overallWeight",
          "type": "uint64"
        }
      ],
      "name": "transactThroughSigned",
      "outputs": [],
      "stateMutability": "nonpayable",
      "type": "function"
    },
    {
      "inputs": [
        {
          "components": [
            {
              "internalType": "uint8",
              "name": "parents",
              "type": "uint8"
            },
            {
              "internalType": "bytes[]",
              "name": "interior",
              "type": "bytes[]"
            }
          ],
          "internalType": "struct XcmTransactorV2.Multilocation",
          "name": "dest",
          "type": "tuple"
        },
        {
          "components": [
            {
              "internalType": "uint8",
              "name": "parents",
              "type": "uint8"
            },
            {
              "internalType": "bytes[]",
              "name": "interior",
              "type": "bytes[]"
            }
          ],
          "internalType": "struct XcmTransactorV2.Multilocation",
          "name": "feeLocation",
          "type": "tuple"
        },
        {
          "internalType": "uint64",
          "name": "transactRequiredWeightAtMost",
          "type": "uint64"
        },
        {
          "internalType": "bytes",
          "name": "call",
          "type": "bytes"
        },
        {
          "internalType": "uint256",
          "name": "feeAmount",
          "type": "uint256"
        },
        {
          "internalType": "uint64",
          "name": "overallWeight",
          "type": "uint64"
        }
      ],
      "name": "transactThroughSignedMultilocation",
      "outputs": [],
      "stateMutability": "nonpayable",
      "type": "function"
    },
    {
      "inputs": [
        {
          "internalType": "uint256",
          "name": "",
          "type": "uint256"
        }
      ],
      "name": "transactThroughSignedMultilocationArray",
      "outputs": [
        {
          "components": [
            {
              "internalType": "uint8",
              "name": "parents",
              "type": "uint8"
            },
            {
              "internalType": "bytes[]",
              "name": "interior",
              "type": "bytes[]"
            }
          ],
          "internalType": "struct XcmTransactorV2.Multilocation",
          "name": "dest",
          "type": "tuple"
        },
        {
          "components": [
            {
              "internalType": "uint8",
              "name": "parents",
              "type": "uint8"
            },
            {
              "internalType": "bytes[]",
              "name": "interior",
              "type": "bytes[]"
            }
          ],
          "internalType": "struct XcmTransactorV2.Multilocation",
          "name": "feeLocation",
          "type": "tuple"
        },
        {
          "internalType": "uint64",
          "name": "transactRequiredWeightAtMost",
          "type": "uint64"
        },
        {
          "internalType": "bytes",
          "name": "call",
          "type": "bytes"
        },
        {
          "internalType": "uint256",
          "name": "feeAmount",
          "type": "uint256"
        },
        {
          "internalType": "uint64",
          "name": "overallWeight",
          "type": "uint64"
        }
      ],
      "stateMutability": "view",
      "type": "function"
    }
  ],
  "bytecode": {
    "object": "0x608060405234801561001057600080fd5b5061119a806100206000396000f3fe608060405234801561001057600080fd5b506004361061009e5760003560e01c8063b689e20c11610066578063b689e20c14610134578063d7ab340c14610176578063f7d650d514610189578063f8a8fd6d146101ae578063fe430475146101b35761009e565b806308a9feaf146100a3578063185de2ae146100c15780633fdc4f36146100da578063906c999014610105578063b648f3fe14610121575b600080fd5b6100ab6101c1565b6040516100b89190610f69565b60405180910390f35b6100d86100cf366004610d8d565b50505050505050565b005b6100ed6100e8366004610d54565b6104cf565b6040516001600160a01b0390911681526020016100b8565b6101136100e8366004610c25565b6040519081526020016100b8565b6100d861012f366004610c5f565b6104d7565b61014c610142366004610c25565b5060009081908190565b604080516001600160401b03948516815292841660208401529216918101919091526060016100b8565b6100d8610184366004610cf9565b610520565b61019c610197366004610d75565b6106a2565b6040516100b89695949392919061109a565b6100d8565b6100d86100cf366004610e24565b60606000805480602002602001604051908101604052809291908181526020016000905b828210156104c65760008481526020808220604080516101008101825260088702909201805460ff1660c084019081526001820180548451818802810188019095528085529496929587959294879460e088019491939284015b828210156102eb57838290600052602060002001805461025e90611113565b80601f016020809104026020016040519081016040528092919081815260200182805461028a90611113565b80156102d75780601f106102ac576101008083540402835291602001916102d7565b820191906000526020600020905b8154815290600101906020018083116102ba57829003601f168201915b50505050508152602001906001019061023f565b50505091525050815260408051808201825260028401805460ff16825260038501805484516020828102820181019096528181529585019593949293858401939092919060009084015b828210156103e157838290600052602060002001805461035490611113565b80601f016020809104026020016040519081016040528092919081815260200182805461038090611113565b80156103cd5780601f106103a2576101008083540402835291602001916103cd565b820191906000526020600020905b8154815290600101906020018083116103b057829003601f168201915b505050505081526020019060010190610335565b50505091525050815260048201546001600160401b0316602082015260058201805460409092019161041290611113565b80601f016020809104026020016040519081016040528092919081815260200182805461043e90611113565b801561048b5780601f106104605761010080835404028352916020019161048b565b820191906000526020600020905b81548152906001019060200180831161046e57829003601f168201915b505050918352505060068201546020808301919091526007909201546001600160401b031660409091015290825260019290920191016101e5565b50505050905090565b60005b919050565b7f6a4fc0d9b68faebe19f7e052b71a7d8f9991b7ff545e2401f23e7fa6e4355f6686868686868660405161051096959493929190611039565b60405180910390a1505050505050565b6040805160c08101825287815260208082018890526001600160401b0380881693830193909352606082018690526080820185905291831660a0820152600080546001810182559080528151805160089092027f290decd9548b62a8d60345a988386fc84ba6bc95484008f6362f93160ef3e5638101805460ff90941660ff1990941693909317835581850151805194959394929385936105e7937f290decd9548b62a8d60345a988386fc84ba6bc95484008f6362f93160ef3e56401929091019061095c565b505050602082810151805160028401805460ff191660ff90921691909117815581830151805192939192610621926003870192019061095c565b505050604082015160048201805467ffffffffffffffff19166001600160401b03909216919091179055606082015180516106669160058401916020909101906109b9565b506080820151600682015560a0909101516007909101805467ffffffffffffffff19166001600160401b03909216919091179055505050505050565b600081815481106106b257600080fd5b600091825260208083206040805180820182526008909402909101805460ff16845260018101805483518186028101860190945280845291965093948694868501949092919084015b828210156107a757838290600052602060002001805461071a90611113565b80601f016020809104026020016040519081016040528092919081815260200182805461074690611113565b80156107935780601f1061076857610100808354040283529160200191610793565b820191906000526020600020905b81548152906001019060200180831161077657829003601f168201915b5050505050815260200190600101906106fb565b5050509152505060408051808201825260028401805460ff168252600385018054845160208281028201810190965281815295969593949293838601939092919060009084015b8282101561089a57838290600052602060002001805461080d90611113565b80601f016020809104026020016040519081016040528092919081815260200182805461083990611113565b80156108865780601f1061085b57610100808354040283529160200191610886565b820191906000526020600020905b81548152906001019060200180831161086957829003601f168201915b5050505050815260200190600101906107ee565b50505091525050600482015460058301805492936001600160401b03909216926108c390611113565b80601f01602080910402602001604051908101604052809291908181526020018280546108ef90611113565b801561093c5780601f106109115761010080835404028352916020019161093c565b820191906000526020600020905b81548152906001019060200180831161091f57829003601f168201915b5050505060068301546007909301549192916001600160401b0316905086565b8280548282559060005260206000209081019282156109a9579160200282015b828111156109a957825180516109999184916020909101906109b9565b509160200191906001019061097c565b506109b5929150610a39565b5090565b8280546109c590611113565b90600052602060002090601f0160209004810192826109e75760008555610a2d565b82601f10610a0057805160ff1916838001178555610a2d565b82800160010185558215610a2d579182015b82811115610a2d578251825591602001919060010190610a12565b506109b5929150610a56565b808211156109b5576000610a4d8282610a6b565b50600101610a39565b5b808211156109b55760008155600101610a57565b508054610a7790611113565b6000825580601f10610a895750610aa7565b601f016020900490600052602060002090810190610aa79190610a56565b50565b80356001600160a01b03811681146104d257600080fd5b600082601f830112610ad1578081fd5b81356001600160401b03811115610aea57610aea61114e565b610afd601f8201601f19166020016110e3565b818152846020838601011115610b11578283fd5b816020850160208301379081016020019190915292915050565b600060408284031215610b3c578081fd5b610b4660406110e3565b9050610b5182610c14565b81526020808301356001600160401b0380821115610b6e57600080fd5b818501915085601f830112610b8257600080fd5b813581811115610b9457610b9461114e565b610ba2848260051b016110e3565b818152848101925083850160005b83811015610bd957610bc78a888435890101610ac1565b85529386019390860190600101610bb0565b50508085870152505050505092915050565b803561ffff811681146104d257600080fd5b80356001600160401b03811681146104d257600080fd5b803560ff811681146104d257600080fd5b600060208284031215610c36578081fd5b81356001600160401b03811115610c4b578182fd5b610c5784828501610b2b565b949350505050565b60008060008060008060c08789031215610c77578182fd5b86356001600160401b0380821115610c8d578384fd5b610c998a838b01610b2b565b9750610ca760208a01610aaa565b9650610cb560408a01610bfd565b95506060890135915080821115610cca578384fd5b50610cd789828a01610ac1565b93505060808701359150610ced60a08801610bfd565b90509295509295509295565b60008060008060008060c08789031215610d11578182fd5b86356001600160401b0380821115610d27578384fd5b610d338a838b01610b2b565b97506020890135915080821115610d48578384fd5b610ca78a838b01610b2b565b600060208284031215610d65578081fd5b610d6e82610beb565b9392505050565b600060208284031215610d86578081fd5b5035919050565b600080600080600080600060e0888a031215610da7578081fd5b610db088610c14565b9650610dbe60208901610beb565b9550610dcc60408901610aaa565b9450610dda60608901610bfd565b935060808801356001600160401b03811115610df4578182fd5b610e008a828b01610ac1565b93505060a08801359150610e1660c08901610bfd565b905092959891949750929550565b600080600080600080600060e0888a031215610e3e578283fd5b610e4788610c14565b9650610e5560208901610beb565b955060408801356001600160401b0380821115610e70578485fd5b610e7c8b838c01610b2b565b9650610e8a60608b01610bfd565b955060808a0135915080821115610e9f578485fd5b50610e008a828b01610ac1565b60008151808452815b81811015610ed157602081850181015186830182015201610eb5565b81811115610ee25782602083870101525b50601f01601f19169290920160200192915050565b60006040830160ff835116845260208084015160408287015282815180855260608801915060608160051b89010194508383019250855b81811015610f5c57605f19898703018352610f4a868551610eac565b95509284019291840191600101610f2e565b5093979650505050505050565b60006020808301818452808551808352604092508286019150828160051b870101848801865b8381101561102b57603f19898403018552815160c08151818652610fb582870182610ef7565b915050888201518582038a870152610fcd8282610ef7565b915050878201516001600160401b038082168a880152606091508184015187840383890152610ffc8482610eac565b608086810151908a015260a0958601519092169490970193909352505094870194925090860190600101610f8f565b509098975050505050505050565b600060c0825261104c60c0830189610ef7565b6001600160a01b03881660208401526001600160401b038781166040850152838203606085015261107d8288610eac565b925085608085015280851660a08501525050979650505050505050565b600060c082526110ad60c0830189610ef7565b82810360208401526110bf8189610ef7565b90506001600160401b038088166040850152838203606085015261107d8288610eac565b604051601f8201601f191681016001600160401b038111828210171561110b5761110b61114e565b604052919050565b600181811c9082168061112757607f821691505b6020821081141561114857634e487b7160e01b600052602260045260246000fd5b50919050565b634e487b7160e01b600052604160045260246000fdfea264697066735822122051cfdfbdcb1f89960f248210deed827a2a551a8c42b6ff844e5edab6e0f5e11f64736f6c63430008030033",
    "linkReferences": {}
  },
  "methodIdentifiers": {
    "feePerSecond((uint8,bytes[]))": "906c9990",
    "getTransactThroughSignedMultilocationArray()": "08a9feaf",
    "indexToAccount(uint16)": "3fdc4f36",
    "test()": "f8a8fd6d",
    "transactInfoWithSigned((uint8,bytes[]))": "b689e20c",
    "transactThroughDerivative(uint8,uint16,address,uint64,bytes,uint256,uint64)": "185de2ae",
    "transactThroughDerivativeMultilocation(uint8,uint16,(uint8,bytes[]),uint64,bytes,uint256,uint64)": "fe430475",
    "transactThroughSigned((uint8,bytes[]),address,uint64,bytes,uint256,uint64)": "b648f3fe",
    "transactThroughSignedMultilocation((uint8,bytes[]),(uint8,bytes[]),uint64,bytes,uint256,uint64)": "d7ab340c",
    "transactThroughSignedMultilocationArray(uint256)": "f7d650d5"
  },
  "id": 23
}