{
  "abi": [
    {
      "inputs": [
        {
          "internalType": "bytes32",
          "name": "",
          "type": "bytes32"
        }
      ],
      "name": "fakeMultilocationToAddressMapping",
      "outputs": [
        {
          "internalType": "address",
          "name": "",
          "type": "address"
        }
      ],
      "stateMutability": "view",
      "type": "function"
    },
    {
      "inputs": [
        {
          "internalType": "uint32",
          "name": "paraId",
          "type": "uint32"
        },
        {
          "internalType": "uint8",
          "name": "palletInstance",
          "type": "uint8"
        },
        {
          "internalType": "address",
          "name": "owner",
          "type": "address"
        }
      ],
      "name": "fakeSetOwnerMultilocationAddress",
      "outputs": [],
      "stateMutability": "nonpayable",
      "type": "function"
    },
    {
      "inputs": [
        {
          "components": [
            {
              "internalType": "uint8",
              "name": "parents",
              "type": "uint8"
            },
            {
              "internalType": "bytes[]",
              "name": "interior",
              "type": "bytes[]"
            }
          ],
          "internalType": "struct StubXcmUtils.Multilocation",
          "name": "",
          "type": "tuple"
        }
      ],
      "name": "getUnitsPerSecond",
      "outputs": [
        {
          "internalType": "uint256",
          "name": "unitsPerSecond",
          "type": "uint256"
        }
      ],
      "stateMutability": "pure",
      "type": "function"
    },
    {
      "inputs": [
        {
          "components": [
            {
              "internalType": "uint8",
              "name": "parents",
              "type": "uint8"
            },
            {
              "internalType": "bytes[]",
              "name": "interior",
              "type": "bytes[]"
            }
          ],
          "internalType": "struct StubXcmUtils.Multilocation",
          "name": "multilocation",
          "type": "tuple"
        }
      ],
      "name": "multilocationToAddress",
      "outputs": [
        {
          "internalType": "address",
          "name": "account",
          "type": "address"
        }
      ],
      "stateMutability": "view",
      "type": "function"
    },
    {
      "inputs": [],
      "name": "test",
      "outputs": [],
      "stateMutability": "nonpayable",
      "type": "function"
    },
    {
      "inputs": [
        {
          "internalType": "bytes",
          "name": "",
          "type": "bytes"
        }
      ],
      "name": "weightMessage",
      "outputs": [
        {
          "internalType": "uint64",
          "name": "weight",
          "type": "uint64"
        }
      ],
      "stateMutability": "pure",
      "type": "function"
    },
    {
      "inputs": [
        {
          "internalType": "uint32",
          "name": "_paraId",
          "type": "uint32"
        },
        {
          "internalType": "uint8",
          "name": "_palletInstance",
          "type": "uint8"
        }
      ],
      "name": "x2",
      "outputs": [
        {
          "internalType": "bytes[]",
          "name": "",
          "type": "bytes[]"
        }
      ],
      "stateMutability": "pure",
      "type": "function"
    },
    {
      "inputs": [
        {
          "internalType": "bytes",
          "name": "",
          "type": "bytes"
        },
        {
          "internalType": "uint64",
          "name": "",
          "type": "uint64"
        }
      ],
      "name": "xcmExecute",
      "outputs": [],
      "stateMutability": "pure",
      "type": "function"
    },
    {
      "inputs": [
        {
          "components": [
            {
              "internalType": "uint8",
              "name": "parents",
              "type": "uint8"
            },
            {
              "internalType": "bytes[]",
              "name": "interior",
              "type": "bytes[]"
            }
          ],
          "internalType": "struct StubXcmUtils.Multilocation",
          "name": "",
          "type": "tuple"
        },
        {
          "internalType": "bytes",
          "name": "",
          "type": "bytes"
        }
      ],
      "name": "xcmSend",
      "outputs": [],
      "stateMutability": "pure",
      "type": "function"
    }
  ],
  "bytecode": {
    "object": "0x608060405234801561001057600080fd5b50610946806100206000396000f3fe608060405234801561001057600080fd5b50600436106100935760003560e01c80634bd5bbfe116100665780634bd5bbfe14610125578063866129311461014e57806398600e6414610161578063cbe6046714610174578063f8a8fd6d1461019457610093565b806325d541541461009857806334334a02146100c9578063343b3e00146100de5780633f0f65db14610109575b600080fd5b6100ab6100a63660046105b3565b610199565b60405167ffffffffffffffff90911681526020015b60405180910390f35b6100dc6100d73660046105ee565b6101a1565b005b6100f16100ec366004610645565b6101ff565b6040516001600160a01b0390911681526020016100c0565b6101176100a6366004610645565b6040519081526020016100c0565b6100f161013336600461059b565b6000602081905290815260409020546001600160a01b031681565b6100dc61015c36600461070b565b610247565b6100dc61016f366004610678565b6102c8565b6101876101823660046106d9565b61031e565b6040516100c0919061079e565b6100dc565b60005b919050565b60405162461bcd60e51b815260206004820152602860248201527f5374756258636d5574696c733a2078636d45786563757465206e6f7420696d706044820152671b195b595b9d195960c21b60648201526084015b60405180910390fd5b600080826040516020016102139190610817565b60408051601f1981840301815291815281516020928301206000908152918290529020546001600160a01b03169392505050565b60006040518060400160405280600160ff168152602001610268868661031e565b81525090506000816040516020016102809190610817565b60408051808303601f190181529181528151602092830120600090815291829052902080546001600160a01b0319166001600160a01b03949094169390931790925550505050565b60405162461bcd60e51b815260206004820152602560248201527f5374756258636d5574696c733a2078636d53656e64206e6f7420696d706c656d604482015264195b9d195960da1b60648201526084016101f6565b604080516002808252606082810190935260009190816020015b6060815260200190600190039081610338579050509050610358846103c0565b8160008151811061037957634e487b7160e01b600052603260045260246000fd5b602002602001018190525061038d83610410565b816001815181106103ae57634e487b7160e01b600052603260045260246000fd5b60209081029190910101529392505050565b6040516001600160e01b031960e083901b16602082015260609060240160408051601f19818403018152908290526103fa9160200161075c565b6040516020818303038152906040529050919050565b6040516001600160f81b031960f883901b16602082015260609060210160408051601f19818403018152908290526103fa91602001610781565b600082601f83011261045a578081fd5b813567ffffffffffffffff811115610474576104746108fa565b610487601f8201601f1916602001610899565b81815284602083860101111561049b578283fd5b816020850160208301379081016020019190915292915050565b6000604082840312156104c6578081fd5b6104d06040610899565b90506104db8261058a565b815260208083013567ffffffffffffffff808211156104f957600080fd5b818501915085601f83011261050d57600080fd5b81358181111561051f5761051f6108fa565b61052d848260051b01610899565b818152848101925083850160005b83811015610564576105528a88843589010161044a565b8552938601939086019060010161053b565b50508085870152505050505092915050565b803563ffffffff8116811461019c57600080fd5b803560ff8116811461019c57600080fd5b6000602082840312156105ac578081fd5b5035919050565b6000602082840312156105c4578081fd5b813567ffffffffffffffff8111156105da578182fd5b6105e68482850161044a565b949350505050565b60008060408385031215610600578081fd5b823567ffffffffffffffff80821115610617578283fd5b6106238683870161044a565b9350602085013591508082168214610639578283fd5b50809150509250929050565b600060208284031215610656578081fd5b813567ffffffffffffffff81111561066c578182fd5b6105e6848285016104b5565b6000806040838503121561068a578182fd5b823567ffffffffffffffff808211156106a1578384fd5b6106ad868387016104b5565b935060208501359150808211156106c2578283fd5b506106cf8582860161044a565b9150509250929050565b600080604083850312156106eb578182fd5b6106f483610576565b91506107026020840161058a565b90509250929050565b60008060006060848603121561071f578081fd5b61072884610576565b92506107366020850161058a565b915060408401356001600160a01b0381168114610751578182fd5b809150509250925092565b600080825282516107748160018501602087016108ca565b9190910160010192915050565b600160fa1b815281516000906107748160018501602087016108ca565b6000602080830181845280855180835260408601915060408160051b8701019250838701855b8281101561080a57878503603f19018452815180518087526107eb818989018a85016108ca565b601f01601f1916959095018601945092850192908501906001016107c4565b5092979650505050505050565b600060208083526060830160ff855116828501528185015160408086015281815180845260808701915060808160051b88010193508483019250855b8181101561080a57878503607f190183528351805180875261087a818989018a85016108ca565b601f01601f191695909501860194509285019291850191600101610853565b604051601f8201601f1916810167ffffffffffffffff811182821017156108c2576108c26108fa565b604052919050565b60005b838110156108e55781810151838201526020016108cd565b838111156108f4576000848401525b50505050565b634e487b7160e01b600052604160045260246000fdfea26469706673582212208426c7b6650069d1a477b408e71cf239c747005b3ae224fbd6fba7f5e6a79e1164736f6c63430008030033",
    "linkReferences": {}
  },
  "methodIdentifiers": {
    "fakeMultilocationToAddressMapping(bytes32)": "4bd5bbfe",
    "fakeSetOwnerMultilocationAddress(uint32,uint8,address)": "86612931",
    "getUnitsPerSecond((uint8,bytes[]))": "3f0f65db",
    "multilocationToAddress((uint8,bytes[]))": "343b3e00",
    "test()": "f8a8fd6d",
    "weightMessage(bytes)": "25d54154",
    "x2(uint32,uint8)": "cbe60467",
    "xcmExecute(bytes,uint64)": "34334a02",
    "xcmSend((uint8,bytes[]),bytes)": "98600e64"
  },
  "id": 23
}