{
  "abi": [
    {
      "inputs": [
        {
          "internalType": "bytes32",
          "name": "",
          "type": "bytes32"
        }
      ],
      "name": "fakeMultilocationToAddressMapping",
      "outputs": [
        {
          "internalType": "address",
          "name": "",
          "type": "address"
        }
      ],
      "stateMutability": "view",
      "type": "function"
    },
    {
      "inputs": [
        {
          "internalType": "uint32",
          "name": "paraId",
          "type": "uint32"
        },
        {
          "internalType": "uint8",
          "name": "palletInstance",
          "type": "uint8"
        },
        {
          "internalType": "address",
          "name": "owner",
          "type": "address"
        }
      ],
      "name": "fakeSetOwnerMultilocationAddress",
      "outputs": [],
      "stateMutability": "nonpayable",
      "type": "function"
    },
    {
      "inputs": [
        {
          "components": [
            {
              "internalType": "uint8",
              "name": "parents",
              "type": "uint8"
            },
            {
              "internalType": "bytes[]",
              "name": "interior",
              "type": "bytes[]"
            }
          ],
          "internalType": "struct StubXcmUtils.Multilocation",
          "name": "multilocation",
          "type": "tuple"
        }
      ],
      "name": "getUnitsPerSecond",
      "outputs": [
        {
          "internalType": "uint256",
          "name": "unitsPerSecond",
          "type": "uint256"
        }
      ],
      "stateMutability": "view",
      "type": "function"
    },
    {
      "inputs": [
        {
          "components": [
            {
              "internalType": "uint8",
              "name": "parents",
              "type": "uint8"
            },
            {
              "internalType": "bytes[]",
              "name": "interior",
              "type": "bytes[]"
            }
          ],
          "internalType": "struct StubXcmUtils.Multilocation",
          "name": "multilocation",
          "type": "tuple"
        }
      ],
      "name": "multilocationToAddress",
      "outputs": [
        {
          "internalType": "address",
          "name": "account",
          "type": "address"
        }
      ],
      "stateMutability": "view",
      "type": "function"
    },
    {
      "inputs": [
        {
          "internalType": "bytes",
          "name": "message",
          "type": "bytes"
        }
      ],
      "name": "weightMessage",
      "outputs": [
        {
          "internalType": "uint64",
          "name": "weight",
          "type": "uint64"
        }
      ],
      "stateMutability": "view",
      "type": "function"
    },
    {
      "inputs": [
        {
          "internalType": "uint32",
          "name": "_paraId",
          "type": "uint32"
        },
        {
          "internalType": "uint8",
          "name": "_palletInstance",
          "type": "uint8"
        }
      ],
      "name": "x2",
      "outputs": [
        {
          "internalType": "bytes[]",
          "name": "",
          "type": "bytes[]"
        }
      ],
      "stateMutability": "pure",
      "type": "function"
    },
    {
      "inputs": [
        {
          "internalType": "bytes",
          "name": "message",
          "type": "bytes"
        },
        {
          "internalType": "uint64",
          "name": "maxWeight",
          "type": "uint64"
        }
      ],
      "name": "xcmExecute",
      "outputs": [],
      "stateMutability": "nonpayable",
      "type": "function"
    },
    {
      "inputs": [
        {
          "components": [
            {
              "internalType": "uint8",
              "name": "parents",
              "type": "uint8"
            },
            {
              "internalType": "bytes[]",
              "name": "interior",
              "type": "bytes[]"
            }
          ],
          "internalType": "struct StubXcmUtils.Multilocation",
          "name": "dest",
          "type": "tuple"
        },
        {
          "internalType": "bytes",
          "name": "message",
          "type": "bytes"
        }
      ],
      "name": "xcmSend",
      "outputs": [],
      "stateMutability": "nonpayable",
      "type": "function"
    }
  ],
  "bytecode": {
    "object": "0x608060405234801561001057600080fd5b50610932806100206000396000f3fe608060405234801561001057600080fd5b50600436106100885760003560e01c80634bd5bbfe1161005b5780634bd5bbfe1461011b578063866129311461014457806398600e6414610157578063cbe604671461016a57600080fd5b806325d541541461008d57806334334a02146100bf578063343b3e00146100d45780633f0f65db146100ff575b600080fd5b6100a161009b3660046104f7565b50600090565b60405167ffffffffffffffff90911681526020015b60405180910390f35b6100d26100cd366004610534565b61018a565b005b6100e76100e2366004610684565b6101e8565b6040516001600160a01b0390911681526020016100b6565b61010d61009b366004610684565b6040519081526020016100b6565b6100e76101293660046106b9565b6000602081905290815260409020546001600160a01b031681565b6100d26101523660046106e6565b610230565b6100d2610165366004610739565b6102b1565b61017d61017836600461079d565b610307565b6040516100b69190610861565b60405162461bcd60e51b815260206004820152602860248201527f5374756258636d5574696c733a2078636d45786563757465206e6f7420696d706044820152671b195b595b9d195960c21b60648201526084015b60405180910390fd5b600080826040516020016101fc919061087b565b60408051601f1981840301815291815281516020928301206000908152918290529020546001600160a01b03169392505050565b60006040518060400160405280600160ff1681526020016102518686610307565b8152509050600081604051602001610269919061087b565b60408051808303601f190181529181528151602092830120600090815291829052902080546001600160a01b0319166001600160a01b03949094169390931790925550505050565b60405162461bcd60e51b815260206004820152602560248201527f5374756258636d5574696c733a2078636d53656e64206e6f7420696d706c656d604482015264195b9d195960da1b60648201526084016101df565b604080516002808252606082810190935260009190816020015b60608152602001906001900390816103215790505090506103418461038d565b81600081518110610354576103546108a3565b6020026020010181905250610368836103dd565b8160018151811061037b5761037b6108a3565b60209081029190910101529392505050565b6040516001600160e01b031960e083901b16602082015260609060240160408051601f19818403018152908290526103c7916020016108b9565b6040516020818303038152906040529050919050565b6040516001600160f81b031960f883901b16602082015260609060210160408051601f19818403018152908290526103c7916020016108df565b634e487b7160e01b600052604160045260246000fd5b6040805190810167ffffffffffffffff8111828210171561045057610450610417565b60405290565b604051601f8201601f1916810167ffffffffffffffff8111828210171561047f5761047f610417565b604052919050565b600082601f83011261049857600080fd5b813567ffffffffffffffff8111156104b2576104b2610417565b6104c5601f8201601f1916602001610456565b8181528460208386010111156104da57600080fd5b816020850160208301376000918101602001919091529392505050565b60006020828403121561050957600080fd5b813567ffffffffffffffff81111561052057600080fd5b61052c84828501610487565b949350505050565b6000806040838503121561054757600080fd5b823567ffffffffffffffff8082111561055f57600080fd5b61056b86838701610487565b935060208501359150808216821461058257600080fd5b50809150509250929050565b803560ff8116811461059f57600080fd5b919050565b6000604082840312156105b657600080fd5b6105be61042d565b90506105c98261058e565b815260208083013567ffffffffffffffff808211156105e757600080fd5b818501915085601f8301126105fb57600080fd5b81358181111561060d5761060d610417565b8060051b61061c858201610456565b918252838101850191858101908984111561063657600080fd5b86860192505b83831015610672578235858111156106545760008081fd5b6106628b89838a0101610487565b835250918601919086019061063c565b80878901525050505050505092915050565b60006020828403121561069657600080fd5b813567ffffffffffffffff8111156106ad57600080fd5b61052c848285016105a4565b6000602082840312156106cb57600080fd5b5035919050565b803563ffffffff8116811461059f57600080fd5b6000806000606084860312156106fb57600080fd5b610704846106d2565b92506107126020850161058e565b915060408401356001600160a01b038116811461072e57600080fd5b809150509250925092565b6000806040838503121561074c57600080fd5b823567ffffffffffffffff8082111561076457600080fd5b610770868387016105a4565b9350602085013591508082111561078657600080fd5b5061079385828601610487565b9150509250929050565b600080604083850312156107b057600080fd5b6107b9836106d2565b91506107c76020840161058e565b90509250929050565b60005b838110156107eb5781810151838201526020016107d3565b50506000910152565b600081518084526020808501808196508360051b8101915082860160005b8581101561085457828403895281518051808652610835818888018985016107d0565b99860199601f01601f1916949094018501935090840190600101610812565b5091979650505050505050565b60208152600061087460208301846107f4565b9392505050565b6020815260ff82511660208201526000602083015160408084015261052c60608401826107f4565b634e487b7160e01b600052603260045260246000fd5b60008152600082516108d28160018501602087016107d0565b9190910160010192915050565b600160fa1b815281516000906108d28160018501602087016107d056fea26469706673582212204bd25fb6455af94567a842e034da15f146a9235fd4399d8d9d285b461ff94c7164736f6c63430008110033",
    "linkReferences": {}
  },
  "methodIdentifiers": {
    "fakeMultilocationToAddressMapping(bytes32)": "4bd5bbfe",
    "fakeSetOwnerMultilocationAddress(uint32,uint8,address)": "86612931",
    "getUnitsPerSecond((uint8,bytes[]))": "3f0f65db",
    "multilocationToAddress((uint8,bytes[]))": "343b3e00",
    "weightMessage(bytes)": "25d54154",
    "x2(uint32,uint8)": "cbe60467",
    "xcmExecute(bytes,uint64)": "34334a02",
    "xcmSend((uint8,bytes[]),bytes)": "98600e64"
  },
  "id": 20
}