{
  "abi": [
    {
      "inputs": [
        {
          "internalType": "bytes32",
          "name": "",
          "type": "bytes32"
        }
      ],
      "name": "fakeMultilocationToAddressMapping",
      "outputs": [
        {
          "internalType": "address",
          "name": "",
          "type": "address"
        }
      ],
      "stateMutability": "view",
      "type": "function"
    },
    {
      "inputs": [
        {
          "internalType": "uint32",
          "name": "paraId",
          "type": "uint32"
        },
        {
          "internalType": "uint8",
          "name": "palletInstance",
          "type": "uint8"
        },
        {
          "internalType": "address",
          "name": "owner",
          "type": "address"
        }
      ],
      "name": "fakeSetOwnerMultilocationAddress",
      "outputs": [],
      "stateMutability": "nonpayable",
      "type": "function"
    },
    {
      "inputs": [
        {
          "components": [
            {
              "internalType": "uint8",
              "name": "parents",
              "type": "uint8"
            },
            {
              "internalType": "bytes[]",
              "name": "interior",
              "type": "bytes[]"
            }
          ],
          "internalType": "struct StubXcmUtils.Multilocation",
          "name": "multilocation",
          "type": "tuple"
        }
      ],
      "name": "getUnitsPerSecond",
      "outputs": [
        {
          "internalType": "uint256",
          "name": "unitsPerSecond",
          "type": "uint256"
        }
      ],
      "stateMutability": "view",
      "type": "function"
    },
    {
      "inputs": [
        {
          "components": [
            {
              "internalType": "uint8",
              "name": "parents",
              "type": "uint8"
            },
            {
              "internalType": "bytes[]",
              "name": "interior",
              "type": "bytes[]"
            }
          ],
          "internalType": "struct StubXcmUtils.Multilocation",
          "name": "multilocation",
          "type": "tuple"
        }
      ],
      "name": "multilocationToAddress",
      "outputs": [
        {
          "internalType": "address",
          "name": "account",
          "type": "address"
        }
      ],
      "stateMutability": "view",
      "type": "function"
    },
    {
      "inputs": [
        {
          "internalType": "bytes",
          "name": "message",
          "type": "bytes"
        }
      ],
      "name": "weightMessage",
      "outputs": [
        {
          "internalType": "uint64",
          "name": "weight",
          "type": "uint64"
        }
      ],
      "stateMutability": "view",
      "type": "function"
    },
    {
      "inputs": [
        {
          "internalType": "uint32",
          "name": "_paraId",
          "type": "uint32"
        },
        {
          "internalType": "uint8",
          "name": "_palletInstance",
          "type": "uint8"
        }
      ],
      "name": "x2",
      "outputs": [
        {
          "internalType": "bytes[]",
          "name": "",
          "type": "bytes[]"
        }
      ],
      "stateMutability": "pure",
      "type": "function"
    },
    {
      "inputs": [
        {
          "internalType": "bytes",
          "name": "message",
          "type": "bytes"
        },
        {
          "internalType": "uint64",
          "name": "maxWeight",
          "type": "uint64"
        }
      ],
      "name": "xcmExecute",
      "outputs": [],
      "stateMutability": "nonpayable",
      "type": "function"
    },
    {
      "inputs": [
        {
          "components": [
            {
              "internalType": "uint8",
              "name": "parents",
              "type": "uint8"
            },
            {
              "internalType": "bytes[]",
              "name": "interior",
              "type": "bytes[]"
            }
          ],
          "internalType": "struct StubXcmUtils.Multilocation",
          "name": "dest",
          "type": "tuple"
        },
        {
          "internalType": "bytes",
          "name": "message",
          "type": "bytes"
        }
      ],
      "name": "xcmSend",
      "outputs": [],
      "stateMutability": "nonpayable",
      "type": "function"
    }
  ],
  "bytecode": {
    "object": "0x608060405234801561001057600080fd5b50610936806100206000396000f3fe608060405234801561001057600080fd5b50600436106100885760003560e01c80634bd5bbfe1161005b5780634bd5bbfe1461011a578063866129311461014357806398600e6414610156578063cbe604671461016957610088565b806325d541541461008d57806334334a02146100be578063343b3e00146100d35780633f0f65db146100fe575b600080fd5b6100a061009b3660046105a3565b610189565b60405167ffffffffffffffff90911681526020015b60405180910390f35b6100d16100cc3660046105de565b610191565b005b6100e66100e1366004610635565b6101ef565b6040516001600160a01b0390911681526020016100b5565b61010c61009b366004610635565b6040519081526020016100b5565b6100e661012836600461058b565b6000602081905290815260409020546001600160a01b031681565b6100d16101513660046106fb565b610237565b6100d1610164366004610668565b6102b8565b61017c6101773660046106c9565b61030e565b6040516100b5919061078e565b60005b919050565b60405162461bcd60e51b815260206004820152602860248201527f5374756258636d5574696c733a2078636d45786563757465206e6f7420696d706044820152671b195b595b9d195960c21b60648201526084015b60405180910390fd5b600080826040516020016102039190610807565b60408051601f1981840301815291815281516020928301206000908152918290529020546001600160a01b03169392505050565b60006040518060400160405280600160ff168152602001610258868661030e565b81525090506000816040516020016102709190610807565b60408051808303601f190181529181528151602092830120600090815291829052902080546001600160a01b0319166001600160a01b03949094169390931790925550505050565b60405162461bcd60e51b815260206004820152602560248201527f5374756258636d5574696c733a2078636d53656e64206e6f7420696d706c656d604482015264195b9d195960da1b60648201526084016101e6565b604080516002808252606082810190935260009190816020015b6060815260200190600190039081610328579050509050610348846103b0565b8160008151811061036957634e487b7160e01b600052603260045260246000fd5b602002602001018190525061037d83610400565b8160018151811061039e57634e487b7160e01b600052603260045260246000fd5b60209081029190910101529392505050565b6040516001600160e01b031960e083901b16602082015260609060240160408051601f19818403018152908290526103ea9160200161074c565b6040516020818303038152906040529050919050565b6040516001600160f81b031960f883901b16602082015260609060210160408051601f19818403018152908290526103ea91602001610771565b600082601f83011261044a578081fd5b813567ffffffffffffffff811115610464576104646108ea565b610477601f8201601f1916602001610889565b81815284602083860101111561048b578283fd5b816020850160208301379081016020019190915292915050565b6000604082840312156104b6578081fd5b6104c06040610889565b90506104cb8261057a565b815260208083013567ffffffffffffffff808211156104e957600080fd5b818501915085601f8301126104fd57600080fd5b81358181111561050f5761050f6108ea565b61051d848260051b01610889565b818152848101925083850160005b83811015610554576105428a88843589010161043a565b8552938601939086019060010161052b565b50508085870152505050505092915050565b803563ffffffff8116811461018c57600080fd5b803560ff8116811461018c57600080fd5b60006020828403121561059c578081fd5b5035919050565b6000602082840312156105b4578081fd5b813567ffffffffffffffff8111156105ca578182fd5b6105d68482850161043a565b949350505050565b600080604083850312156105f0578081fd5b823567ffffffffffffffff80821115610607578283fd5b6106138683870161043a565b9350602085013591508082168214610629578283fd5b50809150509250929050565b600060208284031215610646578081fd5b813567ffffffffffffffff81111561065c578182fd5b6105d6848285016104a5565b6000806040838503121561067a578182fd5b823567ffffffffffffffff80821115610691578384fd5b61069d868387016104a5565b935060208501359150808211156106b2578283fd5b506106bf8582860161043a565b9150509250929050565b600080604083850312156106db578182fd5b6106e483610566565b91506106f26020840161057a565b90509250929050565b60008060006060848603121561070f578081fd5b61071884610566565b92506107266020850161057a565b915060408401356001600160a01b0381168114610741578182fd5b809150509250925092565b600080825282516107648160018501602087016108ba565b9190910160010192915050565b600160fa1b815281516000906107648160018501602087016108ba565b6000602080830181845280855180835260408601915060408160051b8701019250838701855b828110156107fa57878503603f19018452815180518087526107db818989018a85016108ba565b601f01601f1916959095018601945092850192908501906001016107b4565b5092979650505050505050565b600060208083526060830160ff855116828501528185015160408086015281815180845260808701915060808160051b88010193508483019250855b818110156107fa57878503607f190183528351805180875261086a818989018a85016108ba565b601f01601f191695909501860194509285019291850191600101610843565b604051601f8201601f1916810167ffffffffffffffff811182821017156108b2576108b26108ea565b604052919050565b60005b838110156108d55781810151838201526020016108bd565b838111156108e4576000848401525b50505050565b634e487b7160e01b600052604160045260246000fdfea26469706673582212202abeb4bac7165fa9b6749cae1c1b7bb23daaa1e93ec25bca1a09c5f6e716db2864736f6c63430008030033",
    "linkReferences": {}
  },
  "methodIdentifiers": {
    "fakeMultilocationToAddressMapping(bytes32)": "4bd5bbfe",
    "fakeSetOwnerMultilocationAddress(uint32,uint8,address)": "86612931",
    "getUnitsPerSecond((uint8,bytes[]))": "3f0f65db",
    "multilocationToAddress((uint8,bytes[]))": "343b3e00",
    "weightMessage(bytes)": "25d54154",
    "x2(uint32,uint8)": "cbe60467",
    "xcmExecute(bytes,uint64)": "34334a02",
    "xcmSend((uint8,bytes[]),bytes)": "98600e64"
  },
  "id": 23
}