{
  "abi": [
    {
      "inputs": [
        {
          "internalType": "bytes32",
          "name": "",
          "type": "bytes32"
        }
      ],
      "name": "fakeMultilocationToAddressMapping",
      "outputs": [
        {
          "internalType": "address",
          "name": "",
          "type": "address"
        }
      ],
      "stateMutability": "view",
      "type": "function"
    },
    {
      "inputs": [
        {
          "internalType": "uint32",
          "name": "paraId",
          "type": "uint32"
        },
        {
          "internalType": "uint8",
          "name": "palletInstance",
          "type": "uint8"
        },
        {
          "internalType": "address",
          "name": "owner",
          "type": "address"
        }
      ],
      "name": "fakeSetOwnerMultilocationAddress",
      "outputs": [],
      "stateMutability": "nonpayable",
      "type": "function"
    },
    {
      "inputs": [
        {
          "components": [
            {
              "internalType": "uint8",
              "name": "parents",
              "type": "uint8"
            },
            {
              "internalType": "bytes[]",
              "name": "interior",
              "type": "bytes[]"
            }
          ],
          "internalType": "struct StubXcmUtils.Multilocation",
          "name": "",
          "type": "tuple"
        }
      ],
      "name": "getUnitsPerSecond",
      "outputs": [
        {
          "internalType": "uint256",
          "name": "unitsPerSecond",
          "type": "uint256"
        }
      ],
      "stateMutability": "pure",
      "type": "function"
    },
    {
      "inputs": [
        {
          "components": [
            {
              "internalType": "uint8",
              "name": "parents",
              "type": "uint8"
            },
            {
              "internalType": "bytes[]",
              "name": "interior",
              "type": "bytes[]"
            }
          ],
          "internalType": "struct StubXcmUtils.Multilocation",
          "name": "multilocation",
          "type": "tuple"
        }
      ],
      "name": "multilocationToAddress",
      "outputs": [
        {
          "internalType": "address",
          "name": "account",
          "type": "address"
        }
      ],
      "stateMutability": "view",
      "type": "function"
    },
    {
      "inputs": [],
      "name": "test",
      "outputs": [],
      "stateMutability": "nonpayable",
      "type": "function"
    },
    {
      "inputs": [
        {
          "internalType": "bytes",
          "name": "",
          "type": "bytes"
        }
      ],
      "name": "weightMessage",
      "outputs": [
        {
          "internalType": "uint64",
          "name": "weight",
          "type": "uint64"
        }
      ],
      "stateMutability": "pure",
      "type": "function"
    },
    {
      "inputs": [
        {
          "internalType": "uint32",
          "name": "_paraId",
          "type": "uint32"
        },
        {
          "internalType": "uint8",
          "name": "_palletInstance",
          "type": "uint8"
        }
      ],
      "name": "x2",
      "outputs": [
        {
          "internalType": "bytes[]",
          "name": "",
          "type": "bytes[]"
        }
      ],
      "stateMutability": "pure",
      "type": "function"
    },
    {
      "inputs": [
        {
          "internalType": "bytes",
          "name": "",
          "type": "bytes"
        },
        {
          "internalType": "uint64",
          "name": "",
          "type": "uint64"
        }
      ],
      "name": "xcmExecute",
      "outputs": [],
      "stateMutability": "pure",
      "type": "function"
    },
    {
      "inputs": [
        {
          "components": [
            {
              "internalType": "uint8",
              "name": "parents",
              "type": "uint8"
            },
            {
              "internalType": "bytes[]",
              "name": "interior",
              "type": "bytes[]"
            }
          ],
          "internalType": "struct StubXcmUtils.Multilocation",
          "name": "",
          "type": "tuple"
        },
        {
          "internalType": "bytes",
          "name": "",
          "type": "bytes"
        }
      ],
      "name": "xcmSend",
      "outputs": [],
      "stateMutability": "pure",
      "type": "function"
    }
  ],
  "bytecode": {
    "object": "0x608060405234801561001057600080fd5b5061093d806100206000396000f3fe608060405234801561001057600080fd5b50600436106100935760003560e01c80634bd5bbfe116100665780634bd5bbfe14610126578063866129311461014f57806398600e6414610162578063cbe6046714610175578063f8a8fd6d146100dd57600080fd5b806325d541541461009857806334334a02146100ca578063343b3e00146100df5780633f0f65db1461010a575b600080fd5b6100ac6100a6366004610502565b50600090565b60405167ffffffffffffffff90911681526020015b60405180910390f35b6100dd6100d836600461053f565b610195565b005b6100f26100ed36600461068f565b6101f3565b6040516001600160a01b0390911681526020016100c1565b6101186100a636600461068f565b6040519081526020016100c1565b6100f26101343660046106c4565b6000602081905290815260409020546001600160a01b031681565b6100dd61015d3660046106f1565b61023b565b6100dd610170366004610744565b6102bc565b6101886101833660046107a8565b610312565b6040516100c1919061086c565b60405162461bcd60e51b815260206004820152602860248201527f5374756258636d5574696c733a2078636d45786563757465206e6f7420696d706044820152671b195b595b9d195960c21b60648201526084015b60405180910390fd5b600080826040516020016102079190610886565b60408051601f1981840301815291815281516020928301206000908152918290529020546001600160a01b03169392505050565b60006040518060400160405280600160ff16815260200161025c8686610312565b81525090506000816040516020016102749190610886565b60408051808303601f190181529181528151602092830120600090815291829052902080546001600160a01b0319166001600160a01b03949094169390931790925550505050565b60405162461bcd60e51b815260206004820152602560248201527f5374756258636d5574696c733a2078636d53656e64206e6f7420696d706c656d604482015264195b9d195960da1b60648201526084016101ea565b604080516002808252606082810190935260009190816020015b606081526020019060019003908161032c57905050905061034c84610398565b8160008151811061035f5761035f6108ae565b6020026020010181905250610373836103e8565b81600181518110610386576103866108ae565b60209081029190910101529392505050565b6040516001600160e01b031960e083901b16602082015260609060240160408051601f19818403018152908290526103d2916020016108c4565b6040516020818303038152906040529050919050565b6040516001600160f81b031960f883901b16602082015260609060210160408051601f19818403018152908290526103d2916020016108ea565b634e487b7160e01b600052604160045260246000fd5b6040805190810167ffffffffffffffff8111828210171561045b5761045b610422565b60405290565b604051601f8201601f1916810167ffffffffffffffff8111828210171561048a5761048a610422565b604052919050565b600082601f8301126104a357600080fd5b813567ffffffffffffffff8111156104bd576104bd610422565b6104d0601f8201601f1916602001610461565b8181528460208386010111156104e557600080fd5b816020850160208301376000918101602001919091529392505050565b60006020828403121561051457600080fd5b813567ffffffffffffffff81111561052b57600080fd5b61053784828501610492565b949350505050565b6000806040838503121561055257600080fd5b823567ffffffffffffffff8082111561056a57600080fd5b61057686838701610492565b935060208501359150808216821461058d57600080fd5b50809150509250929050565b803560ff811681146105aa57600080fd5b919050565b6000604082840312156105c157600080fd5b6105c9610438565b90506105d482610599565b815260208083013567ffffffffffffffff808211156105f257600080fd5b818501915085601f83011261060657600080fd5b81358181111561061857610618610422565b8060051b610627858201610461565b918252838101850191858101908984111561064157600080fd5b86860192505b8383101561067d5782358581111561065f5760008081fd5b61066d8b89838a0101610492565b8352509186019190860190610647565b80878901525050505050505092915050565b6000602082840312156106a157600080fd5b813567ffffffffffffffff8111156106b857600080fd5b610537848285016105af565b6000602082840312156106d657600080fd5b5035919050565b803563ffffffff811681146105aa57600080fd5b60008060006060848603121561070657600080fd5b61070f846106dd565b925061071d60208501610599565b915060408401356001600160a01b038116811461073957600080fd5b809150509250925092565b6000806040838503121561075757600080fd5b823567ffffffffffffffff8082111561076f57600080fd5b61077b868387016105af565b9350602085013591508082111561079157600080fd5b5061079e85828601610492565b9150509250929050565b600080604083850312156107bb57600080fd5b6107c4836106dd565b91506107d260208401610599565b90509250929050565b60005b838110156107f65781810151838201526020016107de565b50506000910152565b600081518084526020808501808196508360051b8101915082860160005b8581101561085f57828403895281518051808652610840818888018985016107db565b99860199601f01601f191694909401850193509084019060010161081d565b5091979650505050505050565b60208152600061087f60208301846107ff565b9392505050565b6020815260ff82511660208201526000602083015160408084015261053760608401826107ff565b634e487b7160e01b600052603260045260246000fd5b60008152600082516108dd8160018501602087016107db565b9190910160010192915050565b600160fa1b815281516000906108dd8160018501602087016107db56fea26469706673582212201a6577be17c35f1b5385da92e3a1413130f299114440522c247e7f668067af0664736f6c63430008130033",
    "linkReferences": {}
  },
  "methodIdentifiers": {
    "fakeMultilocationToAddressMapping(bytes32)": "4bd5bbfe",
    "fakeSetOwnerMultilocationAddress(uint32,uint8,address)": "86612931",
    "getUnitsPerSecond((uint8,bytes[]))": "3f0f65db",
    "multilocationToAddress((uint8,bytes[]))": "343b3e00",
    "test()": "f8a8fd6d",
    "weightMessage(bytes)": "25d54154",
    "x2(uint32,uint8)": "cbe60467",
    "xcmExecute(bytes,uint64)": "34334a02",
    "xcmSend((uint8,bytes[]),bytes)": "98600e64"
  },
  "id": 21
}